:100000000EC028C027C026C025C025C023C022C0DE
:1000100021C020C01FC01EC01DC01CC01BC0112499
:100020001FBECFE5D2E0DEBFCDBF10E0A0E6B0E05E
:10003000E4E3F2E002C005900D92A036B107D9F7D3
:1000400010E0A0E6B0E001C01D92A436B107E1F7D0
:1000500044D0EEC0D5CF1F920F920FB60F9211244D
:100060008F939F93AF93BF938091600090916100B5
:10007000A0916200B09163000196A11DB11D809313
:10008000600090936100A0936200B093630012BE81
:10009000BF91AF919F918F910F900FBE0F901F90C6
:1000A0001895F894209160003091610040916200B1
:1000B000509163007894B901CA0108951ABC82E096
:1000C00083BF12BE89BF109260001092610010922F
:1000D00062001092630078940895AF92BF92CF921D
:1000E000DF92EF92FF920F931F93CF93DF93BC9811
:1000F00087B38F6087BBB89A1ABC82E083BF12BEF9
:1001000089BF1092600010926100109262001092FC
:100110006300789480E091E0EE24FF2400E010E09A
:10012000C0E0D0E0AA24A39448E0B42E34E0C32E6B
:1001300022E0D22E02C090E081E0B49902C080E0BB
:10014000FCCF882311F090E0F8CF992329F020E12B
:1001500037E240E050E00CC0F8948091600090914C
:100160006100A0916200B091630078949C01AD01A0
:10017000F894109260001092610010926200109248
:1001800063007894211531054105510521F421E0E2
:1001900030E040E050E088B38A2588BB0894E11C39
:1001A000F11C81E4E816F10428F088B38D2588BBA2
:1001B000EE24FF240F5F1F4F0132110528F088B392
:1001C0008C2588BB00E010E0219660E071E080E0C3
:1001D00090E00CD02C5F3F4F2C173D0708F0ABCFC1
:1001E00088B38B2588BBC0E0D0E0A5CFA1E21A2E52
:1001F000AA1BBB1BFD010DC0AA1FBB1FEE1FFF1FCB
:10020000A217B307E407F50720F0A21BB30BE40B1A
:10021000F50B661F771F881F991F1A9469F7609561
:100220007095809590959B01AC01BD01CF0108951B
:04023000F894FFCF70
:00000001FF
